:020000040000FA
:100000000C94A4000C94CC000C94CC000C94CC0068
:100010000C94CC000C94CC000C94CC000C94CC0030
:100020000C94CC000C94CC000C94CC000C94CC0020
:100030000C94CC000C94CC000C94CC000C94CC0010
:100040000C94AB060C94CC000C941B070C94F50696
:100050000C94CC000C94CC000C94CC000C94CC00F0
:100060000C94CC000C94CC0008000000BE922449F3
:10007000123EABAAAA2ABECDCCCC4C3E00000080DA
:10008000BEABAAAAAA3E00000000BF000000803F4D
:100090000000000000084178D3BB4387D1133D190D
:1000A0000E3CC3BD4282AD2B3E68EC8276BED98F3A
:1000B000E1A93E4C80EFFFBE01C4FF7F3F0000007E
:1000C000000007634236B79BD8A71A39685618AEA6
:1000D000BAAB558C1D3CB7CC5763BD6DEDFD753E7D
:1000E000F6177231BF000000803F000000002400BE
:1000F00027002A0000000000250028002B00000037
:1001000000080002010000030407000000000000D6
:10011000000000000000230026002900040404045D
:1001200004040404020202020202030303030303A1
:10013000010204081020408001020408102001027E
:10014000040810204D07ED0C11241FBECFEFD8E09E
:10015000DEBFCDBF22E0AAE1B2E001C01D92A73F01
:10016000B207E1F712E0A0E0B1E0E4EDF6E202C090
:1001700005900D92AA31B107D9F710E0C3EAD0E09B
:1001800004C02197FE010E946511C23AD107C9F748
:100190000E941E080C945D130C940000CF92DF9215
:1001A000EF92FF92CF93DF93B091CF02A0E0811145
:1001B000AB2F8091D00290E0880F991FAC014E5E6A
:1001C0005E4FC090D502D090D602E090D702F0905A
:1001D000D80230E020E0FA01C591D491E881B9015C
:1001E00090E080E0EB23EA130AC02F5F3F4F6C15CD
:1001F0007D058E059F0578F36FEF7FEFCB01DF91D3
:10020000CF91FF90EF90DF90CF90089590E0FC01A8
:10021000E250FF4F2491FC01E05DFE4F3491FC0160
:10022000E45EFE4FE491EE23C9F0222339F023303F
:1002300001F1A8F4213019F1223029F1F0E0EE0F9C
:10024000FF1FEC50FF4FA591B4918FB7F894EC913C
:10025000611126C030953E233C938FBF089527300F
:10026000A9F02830C9F0243049F7809180008F7DB3
:1002700003C0809180008F7780938000DFCF84B5AA
:100280008F7784BDDBCF84B58F7DFBCF8091B000AD
:100290008F778093B000D2CF8091B0008F7DF9CF5F
:1002A0003E2BDACFCF93DF9390E0FC01E05DFE4F71
:1002B0002491845E9E4FFC0184918823D1F090E0CC
:1002C000880F991FFC01E651FF4FA591B491FC01E5
:1002D000EC50FF4FC591D491623071F49FB7F89400
:1002E0003C91822F809583238C93E8812E2B288349
:1002F0009FBFDF91CF9108958FB7F894EC912E2B8B
:100300002C938FBFF6CF3FB7F89480911D02909148
:100310001E02A0911F02B091200226B5A89B05C025
:100320002F3F19F00196A11DB11D3FBFBA2FA92F74
:10033000982F8827BC01CD01620F711D811D911D71
:1003400042E0660F771F881F991F4A95D1F70895DD
:100350008F929F92AF92BF92CF92DF92EF92FF92D5
:100360004B015C010E9483016B017C010E948301AF
:100370006C197D098E099F09683E734081059105BE
:10038000A8F321E0821A9108A108B10888EEC80EEE
:1003900083E0D81EE11CF11C81149104A104B10476
:1003A00029F7FF90EF90DF90CF90BF90AF909F9094
:1003B0008F900895CF92DF92EF92FF920F931F9349
:1003C000CF93DF93CDB7DEB7C054D1400FB6F894CA
:1003D000DEBF0FBECDBF2FB7F89480912102909160
:1003E0002202A0912302B09124022FBF4091D1029A
:1003F0005091D2026091D3027091D4028C019D0180
:10040000041B150B260B370BB901A801403D5740C3
:100410006105710590F48091D902C05CDE4F0FB682
:10042000F894DEBF0FBECDBFDF91CF911F910F912A
:10043000FF90EF90DF90CF9008958093D10290933A
:10044000D202A093D302B093D4021092CC021092A5
:10045000CB021092CA021092C9021092C80262E046
:100460008091CD020E94520161E070E080E090E056
:100470000E94A80161E08091CD020E94520160E0DB
:100480008091CD020E9406018091CE02855182307A
:1004900020F58BE291E10197F1F762E08091CD02C6
:1004A0000E9452018091DA0290E08230910538F08A
:1004B000880F991F880F991F05970197F1F7F894F6
:1004C00080E00E94CE006F3F7F4F8F4F9F4F61F4BF
:1004D0001092D902789480E0A0CF64E170E080E0CF
:1004E00090E00E94A801D9CF81E00E94CE006F3F2A
:1004F0007F4F8F4F9F4F61F38E010F5F1F4F6E0134
:100500008FEBC81A8EEFD80A780180E00E94CE00E7
:10051000F701608371838283938381E00E94CE0020
:10052000F7016483758386839783F8E0EF0EF11CEF
:10053000EC14FD0451F7789430E020E0F801C0801D
:10054000D180E280F3804481558166817781FFEF1D
:10055000CF16DF06EF06FF0631F04F3F8FEF58074B
:100560006807780719F41092D902B5CFF90183E032
:10057000F595E7958A95E1F7E853FD4F8081880F5F
:10058000C416D506E606F70610F180832F5F3F4FAD
:10059000085F1F4F2832310589F64091CC02209127
:1005A000C8028091C902280F3327331F8091CA02E5
:1005B000280F311D8091CB02820F932F911D992717
:1005C0004817190681F681E08093D90226CF816011
:1005D000DCCFDC01ED91FC910190F081E02D0994DC
:1005E000AF92BF92CF92DF92EF92FF920F931F9341
:1005F000CF93DF936C017B018B01040F151FEB017F
:100600005E01AE18BF08C017D10759F06991D60135
:10061000ED91FC910190F081E02DC6010995892BA7
:1006200079F7C501DF91CF911F910F91FF90EF9066
:10063000DF90CF90BF90AF900895FC01538D448D13
:10064000252F30E0842F90E0821B930B541710F07D
:10065000CF96089501970895FC01918D828D98178A
:1006600061F0A28DAE0FBF2FB11D5D968C91928D62
:100670009F5F9F73928F90E008958FEF9FEF089593
:10068000FC01918D828D981731F0828DE80FF11D5C
:10069000858D90E008958FEF9FEF0895FC01918D77
:1006A000228D892F90E0805C9F4F821B91098F7370
:1006B0009927089585E292E00E944E0321E0892B5C
:1006C00009F420E0822F089580E090E0892B29F042
:1006D0000E945A0381110C9400000895FC01A48D1E
:1006E000A80FB92FB11DA35ABF4F2C91848D90E054
:1006F00001968F739927848FA689B7892C93A08937
:10070000B1898C91837080648C93938D848D9813C0
:1007100006C00288F389E02D80818F7D8083089553
:10072000EF92FF920F931F93CF93DF93EC0181E041
:10073000888F9B8D8C8D98131AC0E889F9898081E8
:1007400085FF15C09FB7F894EE89FF896083E8891B
:10075000F98980818370806480839FBF81E090E00D
:10076000DF91CF911F910F91FF90EF900895F62E9A
:100770000B8D10E00F5F1F4F0F731127E02E8C8D34
:100780008E110CC00FB607FCFACFE889F989808179
:1007900085FFF5CFCE010E946E03F1CFEB8DEC0FFC
:1007A000FD2FF11DE35AFF4FF0829FB7F8940B8F96
:1007B000EA89FB8980818062CFCFCF93DF93EC0100
:1007C000888D8823B9F0AA89BB89E889F9898C9139
:1007D00085FD03C0808186FD0DC00FB607FCF7CFF5
:1007E0008C9185FFF2CF808185FFEDCFCE010E94F5
:1007F0006E03E9CFDF91CF910895089590E080E0F6
:100800000895CF93DF93EC0160E08E810E94060192
:1008100061E08E810E94060160E08E810E940601E7
:100820008BE891E00197F1F7DF91CF910895CF9296
:10083000DF92EF92FF920F931F93CF93DF936C01A0
:100840007C0187E0E80EF11CD0E0C0E0062F10E04C
:10085000B8010C2E02C0759567950A94E2F7617095
:10086000F70181917F010E9406012196C430D105D4
:1008700079F7C601DF91CF911F910F91FF90EF9013
:10088000DF90CF900C940104CF92DF92EF92FF9211
:100890000F931F93CF93DF93EC01F62E642F8C817F
:1008A0000E9406018D818F3F19F060E00E940601D1
:1008B0000F2D10E08F8584FF25C06E0187E0C80EE4
:1008C000D11CF12CE12CB8010E2C02C07595679556
:1008D0000A94E2F76170F60181916F010E940601AE
:1008E000FFEFEF1AFF0A88E0E816F10461F7CE0186
:1008F000DF91CF911F910F91FF90EF90DF90CF90FC
:100900000C940104B80184E0759567958A95E1F728
:10091000CE010E9417046F2DCE01DF91CF911F9160
:100920000F91FF90EF90DF90CF900C94170440E070
:10093000682F8BED92E00C944404CF93DF938230C8
:1009400029F49091EA0298609093EA028093EE0273
:100950001092EF0280E48093F00280E18093F10234
:1009600080E58093F20261E08091DF020E945201F3
:100970008091E0028F3F19F061E00E94520161E036
:100980008091E1020E945201CBEDD2E09E012B5DED
:1009900032408091EA0284FD0BC084E090E0219611
:1009A0002817390744F461E08E810E945201EECF8E
:1009B00088E090E0F4CF8BE39DE00197F1F760E0F1
:1009C0008091DF020E94060160E08091E1020E94B6
:1009D00006018091E0028F3F19F060E00E9406015D
:1009E0008091EA0284FD39C063E08BED92E00E94C1
:1009F0001704CBE4D6E4CE010197F1F763E08BED69
:100A000092E00E9417042197F1F763E08BED92E0EA
:100A10000E94170483E592E00197F1F762E08BED05
:100A200092E00E9417048091EA0280620E9497047B
:100A300084E08093EB028CE00E94970481E00E94A6
:100A400097048BE39FE10197F1F782E08093EC023A
:100A500086E0DF91CF910C94970480620E94970406
:100A60008BE496E40197F1F78091EA0280620E949C
:100A7000970483E592E00197F1F78091EA028062A2
:100A80000E949704D0CF9091EE02891710F08FEF5B
:100A9000890FE82FF0E0E552FD4F848980680C94BF
:100AA000970441E00E94440481E090E00895FB0136
:100AB00001900020E9F73197AF01461B570BDC018D
:100AC000ED91FC910280F381E02D09948F929F9229
:100AD000AF92BF92EF92FF920F931F93CF93DF934A
:100AE000CDB7DEB7A1970FB6F894DEBF0FBECDBF6E
:100AF0007C01FA01CB0119A2223008F42AE08E0110
:100B00000F5D1F4F822E912CB12CA12CBF01A5018E
:100B100094010E944311F901CA016A300CF5605D2D
:100B2000D8016E938D01232B242B252B79F790E090
:100B300080E0109721F0BD01C7010E945705A196E2
:100B40000FB6F894DEBF0FBECDBFDF91CF911F91DE
:100B50000F91FF90EF90BF90AF909F908F9008956E
:100B6000695CDECFCF93DF93BC0185E292E00E9407
:100B70005705EC0164E271E085E292E00E945705BE
:100B80008C0F9D1FDF91CF9108952F923F924F922E
:100B90005F926F927F928F929F92AF92BF92CF920D
:100BA000DF92EF92FF921F93CF93DF93EC016A01E4
:100BB0007B01722EAB019601CB01B6010E9452104F
:100BC00067E271E0811126C046015701E894B7F849
:100BD0002FEF3FEF4FE75FE7C501B4010E945210CE
:100BE00081110CC02FEF3FEF4FE75FE7C501B40164
:100BF0000E94F60C6BE271E0181664F02FEF3FEFE5
:100C00004FE75FE4C701B6010E945F0F1816B4F406
:100C10006FE271E0CE01DF91CF911F91FF90EF90D5
:100C2000DF90CF90BF90AF909F908F907F906F900C
:100C30005F904F903F902F900C9457052FEF3FEF10
:100C40004FE75FECC701B6010E94F60C87FDE0CFCD
:100C500020E030E0A901C701B6010E94F60C312C5A
:100C6000212C87FF09C06DE2CE010E94E9021C0120
:100C7000F7FAF094F7F8F09410E060E070E080E0AC
:100C80009FE3711641F020E030E040E251E40E9421
:100C9000BE0E1F5FF6CFA70196010E94520E2B01D8
:100CA0003C010E94300F4B015C012AE0BC01A40111
:100CB000CE010E9466057C01E20CF31C1123C1F1F8
:100CC000C501B4010E94FB0C9B01AC01C301B20140
:100CD0000E94510E4B015C016EE2CE010E94E902BE
:100CE000E80EF91E115020F120E030E040E251E41E
:100CF000C501B4010E945C0D2B013C010E94300F24
:100D00004B01B12CA12C2AE0B501A401CE010E9417
:100D10006605E80EF91EC501B4010E94FB0C9B019B
:100D2000AC01C301B2010E94510E4B015C01DACF4C
:100D3000C701DF91CF911F91FF90EF90DF90CF908F
:100D4000BF90AF909F908F907F906F905F904F90EB
:100D50003F902F9008951F920F920FB60F9211247B
:100D60002F933F938F939F93AF93BF9380912102D3
:100D700090912202A0912302B091240230911C0292
:100D800023E0230F2D3758F50196A11DB11D2093A7
:100D90001C028093210290932202A0932302B0931D
:100DA000240280911D0290911E02A0911F02B09119
:100DB00020020196A11DB11D80931D0290931E0279
:100DC000A0931F02B0932002BF91AF919F918F918A
:100DD0003F912F910F900FBE0F901F90189526E80E
:100DE000230F0296A11DB11DD2CF1F920F920FB6F5
:100DF0000F9211242F933F934F935F936F937F93A1
:100E00008F939F93AF93BF93EF93FF9385E292E00D
:100E10000E946E03FF91EF91BF91AF919F918F91CF
:100E20007F916F915F914F913F912F910F900FBEE6
:100E30000F901F9018951F920F920FB60F921124CA
:100E40002F938F939F93EF93FF93E0913502F0914F
:100E500036028081E0913B02F0913C0282FD1BC092
:100E6000908180913E028F5F8F7320913F028217A5
:100E700041F0E0913E02F0E0EB5DFD4F958F8093F5
:100E80003E02FF91EF919F918F912F910F900FBE96
:100E90000F901F9018958081F4CFCF931092280265
:100EA0001092270288EE93E0A0E0B0E08093290240
:100EB00090932A02A0932B02B0932C028AE091E037
:100EC000909326028093250285EC90E09093320265
:100ED0008093310284EC90E090933402809333024B
:100EE00080EC90E0909336028093350281EC90E0A4
:100EF000909338028093370282EC90E090933A020C
:100F00008093390286EC90E090933C0280933B0200
:100F100010923E0210923F02109240021092410243
:100F20001092DE021092DD028CE191E09093DC02DF
:100F30008093DB0286E08093DF028FEF8093E002F4
:100F400087E08093E10289E08093E2028AE0809367
:100F5000E302CBE0C093E4028CE08093E5021092C0
:100F6000E6021092E7021092E8021092E902109253
:100F7000EA0281E00E949D048DE08093CD02C0933F
:100F8000CE02EDE3F1E0E491E093CF02E9E2F1E09B
:100F9000E491E093D00280E89EE3A0E0B0E080938B
:100FA000D5029093D602A093D702B093D8021092A4
:100FB000C3021092C2021092C5021092C402109293
:100FC000C7021092C60261E070E090E080E00E94EB
:100FD00090120097E9F09093C3028093C20210929E
:100FE000C5021092C4022091C6023091C702232B81
:100FF00011F4FC0110821092C7021092C60266E240
:1010000071E08091C2029091C302CF910C9456136B
:101010008091C2029091C302009711F00E940712C2
:101020001092C3021092C2021092C7021092C6021E
:101030001092C5021092C402CF910895CF93DF930E
:10104000CDB7DEB72C970FB6F894DEBF0FBECDBF7D
:10105000789484B5826084BD84B5816084BD85B593
:10106000826085BD85B5816085BD80916E0081609F
:1010700080936E0010928100809181008260809345
:101080008100809181008160809381008091800047
:101090008160809380008091B10084608093B10072
:1010A0008091B00081608093B00080917A0084606C
:1010B00080937A0080917A00826080937A00809198
:1010C0007A00816080937A0080917A0080688093B2
:1010D0007A001092C100E0913502F091360282E070
:1010E0008083E0913102F09132021082E09133026C
:1010F000F09134028FEC808310923D02E09139022E
:10110000F0913A0286E08083E0913702F091380254
:10111000808180618083E0913702F0913802808184
:1011200088608083E0913702F09138028081806886
:101130008083E0913702F091380280818F7D808337
:1011400083E391E00E94B20582E591E00E94B2053E
:1011500083E891E00E94B20582E00E949D0462E073
:101160008091CD020E9452012FB7F8948091210204
:1011700090912202A0912302B09124022FBF805DA2
:101180009740A109B1098093D1029093D202A09314
:10119000D302B093D40287E38093DA0280E00E9406
:1011A000430562E971E08BED92E00E94570581E012
:1011B0000E94430562EA71E08BED92E00E945705C0
:1011C00064E271E085E292E00E9457058CEA91E0CA
:1011D0000E94B20560ED77E080E090E00E94A801F7
:1011E0000BE31FE181E00E949704C8010197F1F72A
:1011F0000E94DA01882349F08091CE028B3028F0DA
:101200008D3050F085518230B0F1412C512C90EC52
:10121000692E9FE7792E1EC06091C90270E090E0B0
:1012200080E00E94FD0C2DEC3CEC4CEC5DE30E9458
:101230005C0D6B017C016091C80270E090E080E081
:101240000E94FD0C9B01AC01C701B6010E94520E29
:101250002B013C010E94DA01882341F08091CE02EB
:101260008C3009F42CC3C8F48B3081F180E090E01D
:10127000A0ECBFE749C36091C8027091C90276270C
:101280006727762790E080E00E94FB0C2DEC3CEC79
:101290004CEC5DE30E945C0DDBCF8551823030F772
:1012A000F090CA026F2D70E0762F662766277F7751
:1012B0008091CB02682B90E080E00E94FB0C2DEC2B
:1012C0003CEC4CEC5DE30E945C0D15C36091CA02DE
:1012D00070E090E080E00E94FB0C6B017C01B0901C
:1012E000CB02B7FE0AC0AC019B0160E070E080E871
:1012F0009FEB0E94510E6B017C016B2D6F7070E0B3
:1013000090E080E00E94FD0C2DEC3CEC4CEC5DE3A9
:101310000E945C0DA70196010E94520E69837A8398
:101320008B839C8326E636E646EE5FE369817A810D
:101330008B819C810E945C0D20E030E040E052E413
:101340000E94520E6B017C0120E030E048E852E43C
:101350000E94510E2AE939E949E95FE30E945C0DD8
:101360004B015C0120E030E044E752E4C701B601E4
:101370000E94520E9B01AC01C501B4010E94520EA5
:101380004B015C0122E133E840EC5DE3C301B201B3
:101390000E945C0D9B01AC01C501B4010E94520E7C
:1013A00020E030E040E05FE30E945C0D4B015C0117
:1013B00020E030E04EE952E40E945F0F18160CF076
:1013C00013C1A7019601C701B6010E945C0D6D8390
:1013D0007E838F839887A3019201C301B2010E948B
:1013E0005C0D69877A878B879C8721E133E243E034
:1013F00050E4C701B6010E945C0D29E134E849E2DE
:1014000052E40E94510E4B015C0126E13BE442E2B2
:1014100051E4C301B2010E945C0D9B01AC01C50106
:10142000B4010E94520E4B015C0128E436E246E60C
:101430005EEBC701B6010E945C0DA30192010E9400
:101440005C0D9B01AC01C501B4010E94520E4B0121
:101450005C0120EE3FE040EE5BEB6D817E818F8191
:1014600098850E945C0D9B01AC01C501B4010E94EE
:10147000520E4B015C0128EF37E840E65DEB6985D1
:101480007A858B859C850E945C0D9B01AC01C50112
:10149000B4010E94520E4B015C012CEA3DE041EA8E
:1014A0005AE36D817E818F8198850E945C0DA30136
:1014B00092010E945C0D9B01AC01C501B4010E9428
:1014C000520E4B015C0128EC3FE84FE55AE3C7019F
:1014D000B6010E945C0D29853A854B855C850E948A
:1014E0005C0D9B01AC01C501B4010E94520E4B0181
:1014F0005C0121EF3BE845E056EB6D817E818F81F9
:1015000098850E945C0D29853A854B855C850E94F3
:101510005C0D9B01AC01C501B4010E94520E4B0150
:101520005C0120E030E040E551E4C301B2010E94DB
:10153000F60C87FFF7C120E030E040EA52E4C70133
:10154000B6010E945F0F87FDEDC120E030E040EE64
:1015500052E4C701B6010E94F60C18160CF431C211
:10156000A301920160E070E080E591E40E94510ED9
:1015700020E030E040E85EE30E945C0D6D837E83F6
:101580008F83988720E030E04EEB52E4C701B6012C
:101590000E94510E6B017C0120E030E0A9010E9405
:1015A0005F0F18160CF0B5C1A701960160E070E05E
:1015B00088E891E40E94510E2EE33DEE40E75DE3A2
:1015C0000E945C0D0E9412109B01AC016D817E8116
:1015D0008F8198850E945C0D9B01AC01C501B4010F
:1015E0000E94510E4B015C0120E030E040E052E4EB
:1015F000C501B4010E94510E26E838E34EE05FE3D6
:101600000E945C0D6D837E838F839887C0901A0241
:10161000D0901B020D2C000CEE08FF082AE0B70149
:10162000A601F7FE0DC06DE285E292E00E94E9029C
:1016300044275527BA014C195D096E097F092AE034
:1016400085E292E00E9466056CE285E292E00E94EB
:10165000E90222E0B301A20185E292E00E94C50501
:101660006CE285E292E00E94E90222E049815A811F
:101670006B817C8185E292E00E94C5056CE285E287
:1016800092E00E94E90223E333E948E853E46981E8
:101690007A818B819C810E94520E9B01AC0163E395
:1016A00073E98AEB93E40E94BE0E6B017C0120E09B
:1016B00030E040E85FE30E94510E4B015C0126E3FD
:1016C00035EE4CEF50EC0E945C0D69877A878B8772
:1016D0009C87C701B6010E94640F28E036EE40EAFD
:1016E00050E40E945C0D29853A854B855C850E94FB
:1016F000520E69877A878B879C87A701960160E0E5
:1017000070E080E89FE30E94BE0E9B01AC0160E0A8
:1017100070E080E89FE30E94510E26E031E845E347
:1017200051E40E945C0D9B01AC0160E070E080E23E
:1017300091E40E94BC0F20E030E040E85FE30E94AB
:10174000510E22E239E544E154EB0E945C0D2985FB
:101750003A854B855C850E94520E6B017C0122E923
:1017600034E74FE550ECC501B4010E945C0D9B01CC
:10177000AC0160E070E080E291E40E94BC0F20E0E8
:1017800030E040E85FE30E94510E20E73FE345E090
:101790005CE30E945C0DA70196010E94520E22EAB2
:1017A0003DE540E450E40E94520E20E030E040E489
:1017B00050E40E94510E9B01AC0160E070E080E2B9
:1017C00091E40E94BC0FA30192010E945C0D24E1F0
:1017D0003CE54CE15FE30E94BE0E0E94740F6B017A
:1017E0007C0128E431EE41E753E40E945C0D4B019B
:1017F0005C01A701960169EC76E78CE891E40E9410
:10180000510E9B01AC01C501B4010E94BE0EAB019B
:10181000BC0122E085E292E00E94C5056CE285E20F
:1018200092E00E94E90222E04D815E816F8178851D
:1018300085E292E00E94C5056AE085E292E00E949E
:10184000E90280E00E94430565E072E08BED92E0E2
:101850000E94570522E0B301A2018BED92E00E94A5
:10186000C50581E00E9443056FE072E08BED92E0D8
:101870000E94570522E049815A816B817C818BED62
:1018800092E00E94C50580911A0290911B02019678
:1018900090931B0280931A0260E777E180E090E06A
:1018A0000E94A801A0E0B0E0AB2B09F49BCC0E9401
:1018B0005A03882309F496CC0E94000093CCF09040
:1018C000CA026F2D70E090E080E00E94FB0C4B019B
:1018D0005C016091CB026F7070E090E080E00E944C
:1018E000FD0C2DEC3CEC4CEC5DE30E945C0DA50185
:1018F00094010E94520E69837A838B839C83DC015E
:10190000CB01B058F7FE0ECD89839A83AB83BC839D
:1019100009CD20E030E048E851E4C701B6010E945B
:10192000520E4ACE20E030E04AEA52E4C301B2014E
:101930000E945F0F18160CF057CE20E030E040EA0E
:1019400052E4C701B6010E945F0F87FD4DCE20E033
:1019500030E04EEA52E4C701B6010E94F60C1816B8
:101960000CF442CE20E030E04AEA52E4C301B20176
:101970000E94510E2DEC3CEC4CEC5DE30E945C0DA2
:101980006D837E838F839887A701960160E070E066
:101990008EEA92E40E94510E2DEC3CEC4CE45EE3A6
:1019A0000E945C0D9B01AC016D817E818F819885C9
:1019B0000E945C0D9B01AC01C501B4010E94520E56
:1019C00011CE20E030E04AEA52E4C301B2010E94A5
:1019D0005F0F18160CF4BBCF07CE8091C202909116
:1019E000C302009711F00C94071208950E94380D5D
:1019F00008F481E00895E89409C097FB3EF49095BF
:101A00008095709561957F4F8F4F9F4F9923A9F0D7
:101A1000F92F96E9BB279395F69587957795679566
:101A2000B795F111F8CFFAF4BB0F11F460FF1BC0AA
:101A30006F5F7F4F8F4F9F4F16C0882311F096E93D
:101A400011C0772321F09EE8872F762F05C06623EB
:101A500071F096E8862F70E060E02AF09A95660FA4
:101A6000771F881FDAF7880F9695879597F908955D
:101A7000990F0008550FAA0BE0E8FEEF161617069F
:101A8000E807F907C0F012161306E407F50798F007
:101A9000621B730B840B950B39F40A2661F0232B20
:101AA000242B252B21F408950A2609F4A140A6959C
:101AB0008FEF811D811D08950E946F0D0C94E00D24
:101AC0000E94D20D38F00E94D90D20F0952311F01C
:101AD0000C94C90D0C94CF0D11240C94140E0E947B
:101AE000F10D70F3959FC1F3950F50E0551F629F64
:101AF000F001729FBB27F00DB11D639FAA27F00D67
:101B0000B11DAA1F649F6627B00DA11D661F829F8D
:101B10002227B00DA11D621F739FB00DA11D621F72
:101B2000839FA00D611D221F749F3327A00D611D8F
:101B3000231F849F600D211D822F762F6A2F112471
:101B40009F5750409AF0F1F088234AF0EE0FFF1FA4
:101B5000BB1F661F771F881F91505040A9F79E3FFB
:101B6000510580F00C94C90D0C94140E5F3FE4F302
:101B7000983ED4F3869577956795B795F795E79551
:101B80009F5FC1F7FE2B880F911D9695879597F95A
:101B9000089597F99F6780E870E060E008959FEFEF
:101BA00080EC089500240A941616170618060906F4
:101BB000089500240A9412161306140605060895C3
:101BC000092E0394000C11F4882352F0BB0F40F44B
:101BD000BF2B11F460FF04C06F5F7F4F8F4F9F4F8B
:101BE000089557FD9058440F551F59F05F3F71F00D
:101BF0004795880F97FB991F61F09F3F79F0879574
:101C00000895121613061406551FF2CF4695F1DFFC
:101C100008C0161617061806991FF1CF869571058C
:101C2000610508940895E894BB2766277727CB01C0
:101C300097F908952F923F924F925F926F927F9201
:101C40008F929F92AF92BF92CF92DF92EF92FF92CC
:101C50000F931F93CF93DF93CDB7DEB7CA1BDB0B78
:101C60000FB6F894DEBF0FBECDBF09942A8839881D
:101C700048885F846E847D848C849B84AA84B98424
:101C8000C884DF80EE80FD800C811B81AA81B98130
:101C9000CE0FD11D0FB6F894DEBF0FBECDBFED0144
:101CA00008955058BB27AA270E94690E0C94E00D96
:101CB0000E94D20D38F00E94D90D20F039F49F3FD8
:101CC00019F426F40C94CF0D0EF4E095E7FB0C9478
:101CD000C90DE92F0E94F10D58F3BA176207730777
:101CE0008407950720F079F4A6F50C94130E0EF4F2
:101CF000E0950B2EBA2FA02D0B01B90190010C011C
:101D0000CA01A0011124FF27591B99F0593F50F433
:101D1000503E68F11A16F040A22F232F342F44278B
:101D2000585FF3CF469537952795A795F040539583
:101D3000C9F77EF41F16BA0B620B730B840BBAF053
:101D40009150A1F0FF0FBB1F661F771F881FC2F7BE
:101D50000EC0BA0F621F731F841F48F487957795D2
:101D60006795B795F7959E3F08F0B0CF9395880F8C
:101D700008F09927EE0F9795879508950E94D20E47
:101D80000C94E00D0E94D90D58F00E94D20D40F045
:101D900029F45F3F29F00C94C90D51110C94140ED5
:101DA0000C94CF0D0E94F10D68F39923B1F35523E4
:101DB00091F3951B550BBB27AA276217730784075E
:101DC00038F09F5F5F4F220F331F441FAA1FA9F3F4
:101DD00035D00E2E3AF0E0E832D091505040E695E2
:101DE000001CCAF72BD0FE2F29D0660F771F881F43
:101DF000BB1F261737074807AB07B0E809F0BB0B36
:101E0000802DBF01FF2793585F4F3AF09E3F510549
:101E100078F00C94C90D0C94140E5F3FE4F3983ED7
:101E2000D4F3869577956795B795F7959F5FC9F732
:101E3000880F911D9695879597F90895E1E0660FB3
:101E4000771F881FBB1F621773078407BA0720F02C
:101E5000621B730B840BBA0BEE1F88F7E095089595
:101E60000E94F90D88F09F5798F0B92F9927B75124
:101E7000B0F0E1F0660F771F881F991F1AF0BA952E
:101E8000C9F714C0B13091F00E94130EB1E008956B
:101E90000C94130E672F782F8827B85F39F0B93F5D
:101EA000CCF3869577956795B395D9F73EF49095E1
:101EB0008095709561957F4F8F4F9F4F08950E9439
:101EC000380D08F48FEF08950E94740F29ED3BE55B
:101ED0004EED5EE30C945C0D16F00C9491100C9496
:101EE000CF0D68940C94C90D0E94F90DA8F39923A5
:101EF000C1F3AEF3DF93CF931F930F93FF92C92FDC
:101F0000DD2788232AF02197660F771F881FDAF7CD
:101F100020E030E040E85FEB9FE3883920F0803E2E
:101F200038F021968F770E94520EE8E6F0E004C068
:101F30000E94520EE5E9F0E00E94A6108B01BE015E
:101F4000EC01FB2E6F5771097595771F880B990B64
:101F50000E94FD0C28E132E741E35FE30E946F0D30
:101F6000AF2D9801AE01FF900F911F91CF91DF919E
:101F70000E94690E0C94E00DFA01EE0FFF1F3096DF
:101F800021053105A1F16115710561F48038BFE3C8
:101F90009B0749F168949038810561F08038BFEF64
:101FA0009B0741F099234AF5FF3FE10531052105E3
:101FB00019F1E8940894E795D901AA2329F4AB2FE5
:101FC000BE2FF85FD0F310C0FF5F70F4A695E0F766
:101FD000F73950F019F0FF3A38F49F779F930DD0FE
:101FE0000F9007FC9058089546F00C94CF0D60E0D8
:101FF00070E080E89FE308954FE79F775F934F93EA
:102000003F932F930E94740F2F913F914F915F91B7
:102010000E945C0D0C945F1019F416F40C94CF0D13
:102020000C9491100E94F90DB8F39923C9F3B6F3FB
:102030009F57550B87FF0E949F100024A0E640EA9F
:10204000900180585695979528F4805C660F771F0D
:10205000881F20F026173707480730F4621B730BE0
:10206000840B202931294A2BA69517940794202503
:1020700031254A2758F7660F771F881F20F026174B
:102080003707480730F4620B730B840B200D311DAA
:10209000411DA09581F7B901842F9158880F96951D
:1020A000879508950E94380D880B990B089529F49F
:1020B00016F00C94C90D0C94130E0C94CF0D0E94C5
:1020C000F90DA8F39638A0F707F80F92E8942BE3E0
:1020D0003AEA48EB5FE70E94720D0F920F920F925F
:1020E0004DB75EB70F920E940F11E2ECF0E00E9434
:1020F000A6104F915F91EF91FF91E595EE1FFF1FA5
:1021000049F0FE57E0684427EE0F441FFA95E1F7C7
:102110004195550B0E94D9100F9007FE0C94CD10DD
:1021200008959F3F31F0915020F4879577956795FA
:10213000B795880F911D9695879597F908959150B9
:102140005040660F771F881FD2F70895DF93CF9313
:102150001F930F93FF92EF92DF927B018C016894A3
:1021600006C0DA2EEF010E946F0DFE01E894A591E2
:102170002591359145915591A6F3EF010E94690E85
:10218000FE019701A801DA9469F7DF90EF90FF90C4
:102190000F911F91CF91DF9108959B01AC0160E0F9
:1021A00070E080E89FE30C94BE0E0C94C90D0C9473
:1021B00091100E94F90DD8F39923C9F3940F511D82
:1021C000A3F39150504094F059F0882332F0660FF9
:1021D000771F881F91505040C1F79E3F51052CF743
:1021E000880F911D9695879597F908955F3FACF0FC
:1021F000983E9CF0BB27869577956795B79508F430
:10220000B1609395C1F7BB0F58F711F460FFE8CFA9
:102210006F5F7F4F8F4F9F4FE3CF0C94140EFA01E7
:10222000DC01AA0FBB1F9B01AC01BF5728F422277A
:1022300033274427507820C0B75190F4AB2F0024A7
:10224000469537952795011CA395D2F3002071F090
:10225000220F331F441FB395DAF30ED00C94510EA6
:1022600061307105A0E88A07B94630F49B01AC01E2
:102270006627772788279078309621F0208331834E
:10228000428353830895A1E21A2EAA1BBB1BFD01B2
:102290000DC0AA1FBB1FEE1FFF1FA217B307E40745
:1022A000F50720F0A21BB30BE40BF50B661F771F9D
:1022B000881F991F1A9469F760957095809590957D
:1022C0009B01AC01BD01CF010895EE0FFF1F0590EA
:1022D000F491E02D09940F931F93CF93DF938230F5
:1022E000910510F482E090E0E091F502F091F602A1
:1022F00030E020E0B0E0A0E0309799F421153105FE
:1023000009F44AC0281B390B24303105D8F58A81DD
:102310009B816115710589F1FB0193838283FE0125
:1023200011C0408151810281138148175907E0F0A3
:102330004817590799F4109761F012960C93129769
:1023400013961C933296CF01DF91CF911F910F917D
:1023500008950093F5021093F602F4CF211531058C
:1023600051F04217530738F0A901DB019A01BD0172
:10237000DF01F801C1CFEF01F9CF9093F60280930E
:10238000F502CDCFFE01E20FF31F8193919322500E
:10239000310939832883D7CF2091F3023091F40299
:1023A000232B41F420910201309103013093F40278
:1023B0002093F30220910001309101012115310594
:1023C00041F42DB73EB74091040150910501241B03
:1023D000350BE091F302F091F402E217F307A0F459
:1023E0002E1B3F0B2817390778F0AC014E5F5F4F6B
:1023F0002417350748F04E0F5F1F5093F4024093A7
:10240000F302819391939FCFF0E0E0E09CCFCF93D4
:10241000DF930097E9F0FC01329713821282A091BA
:10242000F502B091F602ED0130E020E01097A1F442
:1024300020813181820F931F2091F3023091F402A9
:102440002817390709F061C0F093F402E093F30212
:10245000DF91CF910895EA01CE17DF07E8F54A81B1
:102460005B819E0141155105B1F7E901FB83EA83C8
:1024700049915991C40FD51FEC17FD0761F4808174
:1024800091810296840F951FE90199838883828147
:1024900093819B838A83F0E0E0E012968D919C917A
:1024A00013970097B9F52D913C911197CD010296A4
:1024B000820F931F2091F3023091F40228173907FD
:1024C00039F6309751F51092F6021092F502B0935A
:1024D000F402A093F302BCCFD383C2834081518125
:1024E000840F951FC817D90761F44E5F5F4F88812D
:1024F0009981480F591F518340838A819B8193831F
:1025000082832115310509F0B0CFF093F602E093F4
:10251000F5029ECFFD01DC01C0CF13821282D7CF1E
:10252000B0E0A0E0E6E9F2E10C941C0E8C0100970B
:1025300051F4CB010E946B118C01C801CDB7DEB7FD
:10254000E0E10C94380EFC01E60FF71F9C012250CD
:102550003109E217F30708F49DC0D901CD91DC9150
:102560001197C617D70798F0C530D10530F3CE01C3
:1025700004978617970708F3C61BD70B2297C193BA
:10258000D1936D937C93CF010E940712D6CF5B014C
:10259000AC1ABD0A4C018C0E9D1EA091F502B091A3
:1025A000F602512C412CF12CE12C109731F5809141
:1025B000F3029091F4028815990509F05CC0461663
:1025C000570608F058C080910001909101010097D2
:1025D00041F48DB79EB74091040150910501841BD1
:1025E000950BE817F90708F055C0F093F402E09353
:1025F000F302F90171836083A0CF8D919C911197B3
:1026000012966C90129713967C901397A815B905A3
:1026100059F56C0142E0C40ED11CCA14DB0420F150
:10262000AC014A195B09DA011296159780F06282B3
:10263000738251834083D9016D937C93E114F1043B
:1026400071F0D7011396FC93EE93129776CF2296F2
:102650008C0F9D1FF90191838083F301EFCFF093DD
:10266000F602E093F50269CF4816590608F42C01EA
:102670007D01D3019ACFCB010E946B117C010097A1
:1026800049F0AE01B8010E944D13C8010E94071223
:10269000870153CF10E000E050CFFB01DC0102C006
:1026A00001900D9241505040D8F70895FB01DC0194
:1026B00001900D920020E1F7089510E0C3EAD0E008
:1026C00004C0FE010E9465112196C43AD107C9F7E2
:1026D000F894FFCF0000F702800000000000900394
:1026E000F0021D03DD034E032C0340030000000035
:1026F0005105F002FE03FD030D0A006E616E0069D4
:102700006E66006F766600496E696369616C697A0E
:10271000616E646F20656C2073656E736F723A2012
:102720004448543131004C656374757261206465AE
:102730002068756D6564616420792074656D7065CD
:10274000726174757261207920706F737470726F2A
:1027500063657361646F0044616E69656C205665E2
:102760006C6173636F0020496E696369616C697A9B
:10277000616E646F20002056656C6173636F20008A
:102780004E756D65726F206D65646964612C487566
:102790006D65646164202825292C54656D7065720F
:1027A00061747572612028C2BA43292C50756E7409
:1027B0006F20646520726F63696F2028C2BA432955
:1027C0002C53656E736163696F6E207465726D69F9
:1027D00063612028C2BA43290048756D202028254E
:0E27E00029200054656D702028432920000038
:107E0000112484B714BE81FFF0D085E080938100F7
:107E100082E08093C00088E18093C10086E0809377
:107E2000C20080E18093C4008EE0C9D0259A86E02C
:107E300020E33CEF91E0309385002093840096BBD3
:107E4000B09BFECF1D9AA8958150A9F7CC24DD24C4
:107E500088248394B5E0AB2EA1E19A2EF3E0BF2EE7
:107E6000A2D0813461F49FD0082FAFD0023811F036
:107E7000013811F484E001C083E08DD089C08234E0
:107E800011F484E103C0853419F485E0A6D080C0E4
:107E9000853579F488D0E82EFF2485D0082F10E0AE
:107EA000102F00270E291F29000F111F8ED06801E7
:107EB0006FC0863521F484E090D080E0DECF843638
:107EC00009F040C070D06FD0082F6DD080E0C81688
:107ED00080E7D80618F4F601B7BEE895C0E0D1E017
:107EE00062D089930C17E1F7F0E0CF16F0E7DF06D8
:107EF00018F0F601B7BEE89568D007B600FCFDCFD4
:107F0000A601A0E0B1E02C9130E011968C91119780
:107F100090E0982F8827822B932B1296FA010C0160
:107F200087BEE89511244E5F5F4FF1E0A038BF0790
:107F300051F7F601A7BEE89507B600FCFDCF97BE46
:107F4000E89526C08437B1F42ED02DD0F82E2BD052
:107F50003CD0F601EF2C8F010F5F1F4F84911BD097
:107F6000EA94F801C1F70894C11CD11CFA94CF0C13
:107F7000D11C0EC0853739F428D08EE10CD085E9AC
:107F80000AD08FE07ACF813511F488E018D01DD067
:107F900080E101D065CF982F8091C00085FFFCCF94
:107FA0009093C60008958091C00087FFFCCF809118
:107FB000C00084FD01C0A8958091C6000895E0E648
:107FC000F0E098E1908380830895EDDF803219F02E
:107FD00088E0F5DFFFCF84E1DECF1F93182FE3DFCA
:107FE0001150E9F7F2DF1F91089580E0E8DFEE27F6
:047FF000FF270994CA
:027FFE00040479
:00000001FF
